:100000000C946C000C9494000C9494000C94940048
:100010000C9494000C9494000C9494000C94940010
:100020000C9494000C9494000C9494000C949802FA
:100030000C9494000C9494000C9494000C949400F0
:100040000C94A4070C9494000C949D090C94E00962
:100050000C9494000C9494000C9494000C949400D0
:100060000C9494000C949400C300D400D700DA00E0
:10007000DD00E000E900E3000000000700020100ED
:100080000003040600000000000000000102040854
:1000900010204080010204081020010204081020F2
:1000A000040404040404040402020202020203031E
:1000B00003030303000000002300260029000000C2
:1000C0000000250028002B0000000000240027006D
:1000D0002A008C01FF019C0A11241FBECFEFD8E03B
:1000E000DEBFCDBF11E0A0E0B1E0E2EBFEE102C077
:1000F00005900D92AC3CB107D9F712E0ACECB1E041
:1001000001C01D92A93CB107E1F710E0C8EDD0E0B5
:1001100004C02297FE010E94530FC23DD107C9F7C8
:100120000E94F20A0C94570F0C94000080E090E0BB
:100130000895CF93DF9300D01F92CDB7DEB760E074
:1001400085E00E943507CE0101960E94540360E0CD
:1001500081E00E94350763E170E0CE0101960E94C4
:10016000EE030F900F900F90DF91CF91089580EDE7
:1001700091E00E94DE058830910558F5FC01EC5CA9
:10018000FF4F0C94510F6091D7017091D8018827CF
:1001900077FD8095982F0E94080E20E030E040E225
:1001A00051E40E946D0D08956DE071E00EC067E1AD
:1001B00071E00BC064E271E008C062E371E005C069
:1001C00060E471E002C06EE471E08FE192E00E94B1
:1001D0005A0B60E070E0CB01089581E00E9489082D
:1001E00097FF02C080E090E00895CF92DF92EF92F7
:1001F000FF926B017C0140E060E08BED91E00E949A
:10020000A40460E671E08BED91E00E943D0B40E0BC
:100210006AE08BED91E00E94A40422E030E0B70197
:10022000A6018BED91E00E94020D62E771E08BED7B
:1002300091E0FF90EF90DF90CF900C943D0BCF9327
:10024000DF93EC0141E060E08BED91E00E94A404BB
:1002500064E771E08BED91E00E943D0B68EE73E086
:1002600080E090E00E941D0841E060E08BED91E0AD
:100270000E94A40465E871E08BED91E00E943D0BC3
:1002800041E06AE08BED91E00E94A4044AE050E076
:10029000BE018BED91E0DF91CF910C940F0CCF92CA
:1002A000DF92EF92FF92CF93DF930E94EE07C09010
:1002B000CC01D090CD01E090CE01F090CF016C192F
:1002C0007D098E099F09613D774081059105E8F020
:1002D0000E94B7006B017C010E94ED00EC0120E060
:1002E00030E0A901C701B6010E94690D882369F0B9
:1002F000C701B6010E94F500CE01DF91CF91FF90BA
:10030000EF90DF90CF900C941F01DF91CF91FF9081
:10031000EF90DF90CF90089562E180ED91E00E9430
:10032000B9050E94EE076093CC017093CD018093D4
:10033000CE019093CF010895CF93DF93EC0141E07C
:1003400068E08BED91E00E94A4044AE050E0BE0119
:100350008BED91E0DF91CF910C940F0CCF93DF9355
:1003600066E971E08BED91E00E943D0B8BED91E031
:100370000E94D104C9E0D0E0CE010E949C0168EE49
:1003800073E080E090E00E941D08CE0101970E947A
:100390009C010E94B7000E94ED0068EE73E080E0CF
:1003A00090E00E941D082297CF3F8FEFD80721F7DA
:1003B0008BED91E0DF91CF910C949D0440E855E2E4
:1003C00060E070E08FE192E00E941B0A20E042E0D2
:1003D00060E18BED91E00E94D9040E9496000E949A
:1003E00016020E9499000E94AE010C944A020E94DB
:1003F0004F0160ED77E080E090E00C941D08AF9233
:10040000CF92EF920F9381E1A82E90E1C92E2AE0BE
:10041000E22E07E026E044E062E08BED91E00E94EE
:100420008D050F91EF90CF90AF90089561E08BE034
:100430000E94350761E08DE00E94350761E083E0AE
:100440000E94350761E08CE00C94350761E08DE097
:100450000E946E0761E08CE00C946E0761E08DE015
:100460000E946E0760E08CE00C946E076FEF70E006
:100470008BE00E94A6086FEF70E083E00C94A60862
:1004800060E070E08BE00E94A60860E070E083E02E
:100490000C94A6080E9436020E9426026AE370E2CB
:1004A00080E090E00E941D080E9440020E944F01DF
:1004B00068EE73E080E090E00E941D080E94360222
:1004C0000E942E0262E573E080E090E00E941D0829
:1004D0000E94260260E777E180E090E00E941D081C
:1004E0000E9440020E944F0168EE73E080E090E0BD
:1004F0000E941D080E9436020E942E0262E573E0EF
:1005000080E090E00E941D080E94260260E47FE1E6
:1005100080E090E00E941D080E9440020E944F016E
:1005200068EE73E080E090E00E941D080C944002A9
:100530001F920F920FB60F9211242F933F934F9358
:100540005F936F937F938F939F93AF93BF93EF933B
:10055000FF938091F10187FF05C0109285001092F2
:1005600084001AC02091F101332727FD3095809136
:10057000F00190E0281739077CF48091F101992768
:1005800087FD9095FC01EE0FFF1FE80FF91FEE505D
:10059000FE4F808186FD15C08091F1018F5F8093B1
:1005A000F1012091F101332727FD30958091F00171
:1005B00090E028173907BCF48091F1018C305CF190
:1005C00012C08091F101992787FD9095FC01EE0FF3
:1005D000FF1FE80FF91FEE50FE4F808160E08F7320
:1005E0000E946E07D9CF8091840090918500049677
:1005F00080349C4918F480E49CE905C08091840013
:1006000090918500049690938900809388008FEFE5
:100610008093F10138C080918400909185002091F1
:10062000F101332727FD3095F901EE0FFF1FE20F8F
:10063000F31FEE50FE4F21813281820F931F909362
:100640008900809388008091F101992787FD90951A
:10065000FC01EE0FFF1FE80FF91FEE50FE4F8081E7
:1006600086FF11C08091F101992787FD9095FC01CB
:10067000EE0FFF1FE80FF91FEE50FE4F808161E083
:100680008F730E946E07FF91EF91BF91AF919F9181
:100690008F917F916F915F914F913F912F910F902B
:1006A0000FBE0F901F9018952091F0012C30A0F4F0
:1006B00031E0320F3093F001FC012083822F90E073
:1006C000FC01EE0FFF1FE80FF91FEE50FE4F88EB05
:1006D0009BE09283818308952FEFFC01208308958E
:1006E000DF92EF92FF920F931F93CF93DF93EC0172
:1006F000D62E7A01890188818C3008F066C061E0CD
:100700008D2D0E9435078881A82FB0E0FD01EE0FE6
:10071000FF1FEA0FFB1FEE50FE4F2D2D2F73908110
:10072000907C922B908360E272E06E197F0977FFD4
:1007300002C06D5F7F4F7595679575956795698365
:1007400040E659E0401B510B57FF02C04D5F5F4F21
:1007500055954795559547954A836CE00E94230F20
:100760009CE0899FB001112420E030E0A901460FF0
:10077000571FFA01EE0FFF1FE40FF51FEE50FE4F5B
:10078000908196FD16C02F5F3F4F2C30310571F7D9
:1007900081110FC01092800082E08093810010923E
:1007A000850010928400B19A80916F0082608093DE
:1007B0006F00888190E0FC01EE0FFF1FE80FF91F2A
:1007C000EE50FE4F8081806480838881DF91CF91DD
:1007D0001F910F91FF90EF90DF90089520E639E090
:1007E00040E252E00C947003CF93DF93EC0160E0A1
:1007F0008E810E946E0781E090E00E94430861E0D4
:100800008E810E946E0781E090E00E94430860E0C4
:100810008E810E946E0784E690E0DF91CF910C9468
:100820004308CF92DF92EF92FF920F931F93CF93E3
:10083000DF937C01C0E0D0E0C62ED12C87010C0FE5
:100840001D1F61E0F80187810E943507B6010C2E5B
:1008500002C0759567950A94E2F76170F801878187
:100860000E946E072196C430D10541F7C701DF9180
:10087000CF911F910F91FF90EF90DF90CF900C944C
:10088000F403CF92DF92EF92FF920F931F93CF93D7
:10089000DF937C01C0E0D0E0C62ED12C87010C0F85
:1008A0001D1F61E0F80187810E943507B6010C2EFB
:1008B00002C0759567950A94E2F76170F801878127
:1008C0000E946E072196C830D10541F7C701DF911C
:1008D000CF911F910F91FF90EF90DF90CF900C94EC
:1008E000F4031F93CF93DF93EC01162F642F8C81B9
:1008F0000E946E078D818F3F19F060E00E946E07A5
:100900008F85612F84FF06C0CE01DF91CF911F91AB
:100910000C94410470E084E0759567958A95E1F741
:10092000CE010E941104612FCE01DF91CF911F9162
:100930000C94110440E00C94710461E00E949A044C
:1009400080ED97E00C944308CF93DF93CDB7DEB7EB
:1009500028970FB6F894DEBF0FBECDBF28E0E5E0C4
:10096000F1E0DE01119601900D922A95E1F7FC016C
:100970002389421710F04FEF420FFE013196E40F2A
:10098000F11DE40FF11D2081260F2068622F2896AB
:100990000FB6F894DEBF0FBECDBFDF91CF910C94A0
:1009A0009A04FC016089262F2460208B6C600C94D3
:1009B0009A04CF93DF93EC01423018F08F85886062
:1009C0008F874B8B1C8A222329F0413019F48F85A5
:1009D00084608F8780E593EC0E94430860E08C81FF
:1009E0000E946E0760E08E810E946E078D818F3FAE
:1009F00019F060E00E946E076F8564FD1DC063E022
:100A0000CE010E94110484E991E10E94430863E051
:100A1000CE010E94110484E991E10E94430863E041
:100A2000CE010E94110486E990E00E94430862E032
:100A3000CE010E94110416C06062CE010E949A0489
:100A400084E991E10E9443086F856062CE010E94B3
:100A50009A0486E990E00E9443086F856062CE01A7
:100A60000E949A046F856062CE010E949A0484E01D
:100A7000888BCE010E94D104CE010E949D0482E0A9
:100A8000898B66E0CE01DF91CF910C949A046F922E
:100A90007F928F92AF92CF92EF920F931F93CF934B
:100AA000DF93CDB7DEB73C01162F842F5D854E85D1
:100AB0003F859889F301848325830683E782C08676
:100AC000A1868286538744873587968761E00E9496
:100AD0003507F30185818F3F19F061E00E943507EA
:100AE00061E0F30186810E943507112319F0F301BB
:100AF000178603C080E1F301878720E041E060E1D1
:100B0000C301DF91CF911F910F91EF90CF90AF90E4
:100B10008F907F906F900C94D9048F92AF92CF9268
:100B2000EF920F93DC0113961C921E921297E9EA42
:100B3000F1E0ED93FC931F921F921F921F928A2C5B
:100B4000AC2CCE2CE02E022F242F462F61E00E94E9
:100B500047050F900F900F900F900F91EF90CF904F
:100B6000AF908F90089541E00E94710481E090E081
:100B70000895CF93DF93EC0170E0FB01E457FF4F42
:100B8000E491E883FB01E056FF4FE491F0E0EE0FC3
:100B9000FF1FEC54FF4F859194919A8389830E94A3
:100BA000EE076B837C838D839E838DE19CEF98871A
:100BB0008F839A878987DF91CF9108957F928F9253
:100BC0009F92AF92BF92CF92DF92EF92FF920F93DC
:100BD0001F93CF93DF93CDB7DEB7A9970FB6F894E5
:100BE000DEBF0FBECDBF7C01FC0170800181128190
:100BF0000E94EE076E01FAE2CF0ED11CFE01319683
:100C00001192EC15FD05E1F7F70183809480A58032
:100C1000B6809B01AC01281939094A095B094901D1
:100C20005A0130ED831637E09306A104B10408F4AD
:100C3000DAC06383748385839683F894F801818195
:100C4000B72CB0948B2181837894EEE7AE2E82E0AE
:100C500090E00E944308F8018081872129F4AA943A
:100C6000B1F781E090E0C4C0F894F80182818B2153
:100C7000828381818729818378948CE494E00E9427
:100C80004308F894F80181818B21818378947AE17B
:100C9000B72E82E090E00E944308F801808187210E
:100CA00029F4BA94B1F782E090E0A2C063E3B62ED3
:100CB00082E090E00E944308F8018081872129F0BA
:100CC000BA94B1F783E090E093C09E012F5F3F4F4D
:100CD000590154E2952E82E090E00E944308F80109
:100CE0008081872129F49A94B1F784E090E080C054
:100CF000912C939482E090E00E944308F801808157
:100D0000872131F0F3E39F12F4CF85E090E070C0CB
:100D1000F50191925F01EC15FD05D9F6FE013296C1
:100D20008FE090E040E050E021E030E061916C30F5
:100D300048F0B901082E02C0660F771F0A94E2F747
:100D4000462B572B019790F7FE0172968FE090E0AB
:100D500020E030E061E070E0A191AC3048F0DB01D0
:100D6000082E02C0AA0FBB1F0A94E2F72A2B3B2BC6
:100D7000019790F7FE01B29687E090E060E0A1E075
:100D8000B0E071917C3038F08D01082E01C0000F69
:100D90000A94EAF7602B0197A0F7CA019F77F70141
:100DA0009087878337FF08C03F7788279927821B62
:100DB000930B9287818703C0F7013287218770E008
:100DC000852F9927840F911D432F552747FD5A954D
:100DD000840F951F820F911D99276817790731F4A9
:100DE00080E090E005C087E090E002C086E090E0FF
:100DF000A9960FB6F894DEBF0FBECDBFDF91CF919D
:100E00001F910F91FF90EF90DF90CF90BF90AF9028
:100E10009F908F907F900895833081F028F48130E7
:100E200099F08230A1F008958630A9F08730B9F0AA
:100E30008430D1F4809180008F7D03C08091800048
:100E40008F7780938000089584B58F7702C084B532
:100E50008F7D84BD08958091B0008F7703C080910D
:100E6000B0008F7D8093B0000895CF93DF9390E022
:100E7000FC01E457FF4F2491FC01E056FF4F8491A1
:100E8000882349F190E0880F991FFC01E853FF4F38
:100E9000A591B49182549F4FFC01C591D4919FB705
:100EA000611108C0F8948C91209582238C938881DD
:100EB00082230AC0623051F4F8948C91322F30951D
:100EC00083238C938881822B888304C0F8948C912F
:100ED000822B8C939FBFDF91CF9108950F931F9327
:100EE000CF93DF931F92CDB7DEB7282F30E0F90103
:100EF000E858FF4F8491F901E457FF4F1491F9012D
:100F0000E056FF4F04910023C9F0882321F0698344
:100F10000E940C076981E02FF0E0EE0FFF1FE25402
:100F2000FF4FA591B4919FB7F8948C91611103C0C4
:100F30001095812301C0812B8C939FBF0F90DF916F
:100F4000CF911F910F9108951F920F920FB60F929C
:100F500011242F933F938F939F93AF93BF938091CF
:100F6000170290911802A0911902B0911A023091C3
:100F7000160223E0230F2D3720F40196A11DB11D89
:100F800005C026E8230F0296A11DB11D209316026D
:100F90008093170290931802A0931902B0931A023B
:100FA00080911B0290911C02A0911D02B0911E0223
:100FB0000196A11DB11D80931B0290931C02A0936A
:100FC0001D02B0931E02BF91AF919F918F913F91EF
:100FD0002F910F900FBE0F901F9018952FB7F89478
:100FE00060911702709118028091190290911A0273
:100FF0002FBF08953FB7F89480911B0290911C0277
:10100000A0911D02B0911E0226B5A89B05C02F3FDE
:1010100019F00196A11DB11D3FBF6627782F892FBA
:101020009A2F620F711D811D911D42E0660F771F7F
:10103000881F991F4A95D1F70895CF92DF92EF92BA
:10104000FF92CF93DF936B017C010E94FA07EB01C3
:10105000C114D104E104F10479F00E94FA076C1B79
:101060007D0B683E7340A0F381E0C81AD108E10807
:10107000F108C851DC4FECCFDF91CF91FF90EF909A
:10108000DF90CF9008950197009739F0880F991F4E
:10109000880F991F02970197F1F70895789484B506
:1010A000826084BD84B5816084BD85B5826085BD64
:1010B00085B5816085BDEEE6F0E08081816080834A
:1010C000E1E8F0E01082808182608083808181602D
:1010D0008083E0E8F0E0808181608083E1EBF0E0F4
:1010E000808184608083E0EBF0E080818160808398
:1010F000EAE7F0E080818460808380818260808381
:101100008081816080838081806880831092C100AB
:1011100008958E3008F08E5087702091040190E47D
:10112000299F90011124822B80937C0080917A006A
:10113000806480937A0080917A0086FDFCCF809154
:1011400078002091790090E0922B08951F93CF931F
:10115000DF93182FEB0161E00E943507209711F40F
:1011600060E004C0CF3FD10539F461E0812FDF9109
:10117000CF911F910C946E07E12FF0E0E858FF4FDC
:10118000E491E330F9F048F4E130B9F0E230A1F550
:1011900084B5806284BDC8BD34C0E630E9F0E73074
:1011A00019F1E43049F580918000806280938000DD
:1011B000D0938B00C0938A0024C084B5806884BD1E
:1011C000C7BD1FC080918000806880938000D0934D
:1011D0008900C093880015C08091B000806880931A
:1011E000B000C093B3000DC08091B00080628093C6
:1011F000B000C093B40005C0C038D1050CF0B5CF25
:10120000AFCFDF91CF911F910895FC0124853585E3
:10121000F901E05CFF4F80819181F901EE5BFF4FA6
:1012200020813181821B930B8F7399270895FC01D4
:1012300084859585FC01E05CFF4F40815181FC0174
:10124000EE5BFF4F208131814217530741F001903F
:10125000F081E02DE80FF91F808190E008958FEF75
:101260009FEF0895FC0184859585FC01E05CFF4FAC
:1012700040815181FC01EE5BFF4F2081318142179B
:10128000530779F0A081B181A80FB91F8C912081FB
:1012900031812F5F3F4F2F7333273183208390E0BD
:1012A00008958FEF9FEF0895FC0181A1882329F015
:1012B000A489B5898C9186FFFBCF11A20895CF93A5
:1012C000DF93FC0126853785D901A05CBF4F8D9146
:1012D0009C91119701968F739927E901CE5BDF4F9F
:1012E0004881598184179507D9F30D90BC91A02DA1
:1012F000A20FB31F6C93A685B785A05CBF4F119654
:101300009C938E93A689B7892C9181E090E0078CFD
:1013100002C0880F991F0A94E2F7282B2C9381E0D2
:1013200081A30488F589E02D80818064808381E039
:1013300090E0DF91CF91089508951F920F920FB61C
:101340000F9211242F933F934F938F939F93EF937B
:10135000FF938091C00082FD1CC04091C600809127
:10136000C5029091C60201968F7399272091C702FA
:101370003091C8028217930771F0E091C502F09195
:10138000C602EB57FD4F40839093C6028093C5027F
:1013900002C08091C600FF91EF919F918F914F9174
:1013A0003F912F910F900FBE0F901F9018958FE1D6
:1013B00092E00E940509892B11F00C949C09089574
:1013C0001F920F920FB60F9211242F933F938F937A
:1013D0009F93EF93FF93209181023091820280913D
:1013E0008302909184022817390731F48091C1005B
:1013F0008F7D8093C10014C0E0918302F09184023C
:10140000EF5BFD4F208180918302909184020196D1
:101410008F73992790938402809383022093C60050
:10142000FF91EF919F918F913F912F910F900FBE60
:101430000F901F901895CF92DF92EF92FF92CF936B
:10144000DF93EC016A017B01411581EE58076105CC
:101450007105F9F0EC89FD8981E090E008A002C0F7
:10146000880F991F0A94E2F7808360E079E08DE3AA
:1014700090E0A70196010E942F0F215031094109E8
:1014800051095695479537952795211580E13807DD
:1014900098F0EC89FD89108260E874E88EE190E0B4
:1014A000A70196010E942F0F2150310941095109CE
:1014B0005695479537952795E889F9893083EA89C4
:1014C000FB89208319A2EE89FF89408181E090E0A9
:1014D0009C010C8C02C0220F331F0A94E2F7422BAE
:1014E0004083EE89FF8940819C010D8C02C0220F50
:1014F000331F0A94E2F7422B4083EE89FF89408133
:101500009C010E8C02C0220F331F0A94E2F7422B7B
:101510004083EE89FF8920810F8C02C0880F991FBC
:101520000A94E2F7809582238083DF91CF91FF9028
:10153000EF90DF90CF900895109222021092210236
:1015400088EE93E0A0E0B0E0809323029093240221
:10155000A0932502B093260281EB91E090932002A4
:1015600080931F0285E892E090932C0280932B02D7
:1015700081E492E090932E0280932D0285EC90E01E
:101580009093300280932F0284EC90E0909332028B
:101590008093310280EC90E0909334028093330288
:1015A00081EC90E0909336028093350282EC90E0DB
:1015B000909338028093370286EC90E090933A0241
:1015C0008093390284E080933B0283E080933C0265
:1015D00087E080933D0285E080933E0281E0809326
:1015E0003F0208950E944E080E94DE01C7EDD9E037
:1015F0000E94F7012097E1F30E94D709F9CFCF921B
:10160000DF92EF92FF920F931F93CF93DF936C01C2
:101610007A01EB01E60EF71E00E010E0CE15DF05C3
:1016200061F06991D601ED91FC910190F081E02D7E
:10163000C6010995080F191FF1CFC801DF91CF919D
:101640001F910F91FF90EF90DF90CF90089561155B
:10165000710581F0DB010D900020E9F7AD014150EB
:101660005109461B570BDC01ED91FC910280F3817F
:10167000E02D099480E090E008950C94270BDC01A4
:10168000ED91FC910190F081E02D09940F931F934F
:10169000CF93DF93EC016DE00E943F0B8C016AE079
:1016A000CE010E943F0B800F911FDF91CF911F91C0
:1016B0000F9108950F931F93CF93DF93EC010E9436
:1016C000270B8C01CE010E94460B800F911FDF91EA
:1016D000CF911F910F9108958F929F92AF92BF92D9
:1016E000CF92DF92EF92FF920F931F93CF93DF93EE
:1016F000CDB7DEB7A1970FB6F894DEBF0FBECDBF52
:101700007C01C42EE52FCB01D22E19A221E02D158C
:1017100010F02AE0D22E8E010F5D1F4F8D2C912CE0
:10172000A12CB12C6C2D7E2FA50194010E942F0FAE
:101730008C2DD29E80191124015011098A3014F485
:10174000805D01C0895CF801808321153105410568
:10175000510521F0C22EE32FCA01E4CFB801C70121
:101760000E94270BA1960FB6F894DEBF0FBECDBF27
:10177000DF91CF911F910F91FF90EF90DF90CF906D
:10178000BF90AF909F908F900895CF92DF92EF928D
:10179000FF920F931F93CF93DF93EC016A017B01BC
:1017A0002115310579F4E881F9810190F081E02D6E
:1017B000642FDF91CF911F910F91FF90EF90DF90F9
:1017C000CF9009942A303105E9F477FF1AC06DE211
:1017D0000E943F0B8C0144275527BA014C195D0923
:1017E0006E097F092AE0CE010E946C0B800F911FC9
:1017F000DF91CF911F910F91FF90EF90DF90CF90ED
:1018000008952AE0B701A601CE01DF91CF911F9183
:101810000F91FF90EF90DF90CF900C946C0B9A019A
:10182000AB01662757FD6095762F0C94C50B4F9240
:101830005F926F927F928F929F92AF92BF92CF9260
:10184000DF92EF92FF920F931F93CF93DF93EC0100
:101850006A017B01B22E9A01AB01C701B6010E9459
:101860001F0F882319F06DEB71E027C026013701A7
:10187000E89477F82FEF3FEF4FE75FE7C301B2013E
:101880000E941F0F81110DC02FEF3FEF4FE75FE761
:10189000C301B2010E94690D18161CF461EC71E0DD
:1018A0000CC02FEF3FEF4FE75FE4C701B6010E9486
:1018B000B80E1816ACF465EC71E0CE01DF91CF9153
:1018C0001F910F91FF90EF90DF90CF90BF90AF905E
:1018D0009F908F907F906F905F904F900C94270B0C
:1018E0002FEF3FEF4FE75FECC701B6010E94690D94
:1018F00087FDE1CF20E030E0A901C701B6010E94D9
:10190000690D87FF0AC06DE2CE010E943F0B8C017A
:10191000F7FAF094F7F8F09402C000E010E0A12C80
:1019200060E070E080E09FE3AB1441F020E030E045
:1019300040E251E40E946D0DA394F6CF9B01AC01EF
:10194000C701B6010E94050D6B017C010E94DA0DF2
:101950002B013C010E94060E9B01AC01C701B601A0
:101960000E94040D6B017C012AE0B301A201CE01AB
:101970000E946C0B080F191FBB2039F069EC71E055
:10198000CE010E94270B080F191F7B2C772041F1F5
:1019900020E030E040E251E4C701B6010E94BC0EF5
:1019A0006B017C010E94D50D4B01AA2497FCA094E9
:1019B000BA2C2AE030E0B501A401CE010E94C50B8B
:1019C000080F191FC501B4010E94080E9B01AC014C
:1019D000C701B6010E94040D6B017C017A94D6CF39
:1019E000C801DF91CF911F910F91FF90EF90DF9091
:1019F000CF90BF90AF909F908F907F906F905F90AF
:101A00004F9008950C94170C5058BB27AA270ED05E
:101A100075C166D130F06BD120F031F49F3F11F4E5
:101A20001EF45BC10EF4E095E7FB51C1E92F77D1BD
:101A300080F3BA17620773078407950718F071F4EB
:101A40009EF58FC10EF4E0950B2EBA2FA02D0B0141
:101A5000B90190010C01CA01A0011124FF27591BF3
:101A600099F0593F50F4503E68F11A16F040A22FF9
:101A7000232F342F4427585FF3CF4695379527956A
:101A8000A795F0405395C9F77EF41F16BA0B620B69
:101A9000730B840BBAF09150A1F0FF0FBB1F661FB0
:101AA000771F881FC2F70EC0BA0F621F731F841FF3
:101AB00048F4879577956795B795F7959E3F08F019
:101AC000B3CF9395880F08F09927EE0F97958795D8
:101AD0000895D9D008F481E008950CD00FC107D142
:101AE00040F0FED030F021F45F3F19F0F0C051110A
:101AF00039C1F3C014D198F39923C9F35523B1F335
:101B0000951B550BBB27AA2762177307840738F06C
:101B10009F5F5F4F220F331F441FAA1FA9F333D0CB
:101B20000E2E3AF0E0E830D091505040E695001C7F
:101B3000CAF729D0FE2F27D0660F771F881FBB1F3B
:101B4000261737074807AB07B0E809F0BB0B802D15
:101B5000BF01FF2793585F4F2AF09E3F510568F061
:101B6000B6C000C15F3FECF3983EDCF386957795F5
:101B70006795B795F7959F5FC9F7880F911D969563
:101B8000879597F90895E1E0660F771F881FBB1FBF
:101B9000621773078407BA0720F0621B730B840B6C
:101BA000BA0BEE1F88F7E095089504D06894B11140
:101BB000D9C00895BCD088F09F5790F0B92F9927CD
:101BC000B751A0F0D1F0660F771F881F991F1AF048
:101BD000BA95C9F712C0B13081F0C3D0B1E0089511
:101BE000C0C0672F782F8827B85F39F0B93FCCF392
:101BF000869577956795B395D9F73EF4909580953E
:101C0000709561957F4F8F4F9F4F0895E89409C05D
:101C100097FB3EF490958095709561957F4F8F4F1F
:101C20009F4F9923A9F0F92F96E9BB279395F69535
:101C3000879577956795B795F111F8CFFAF4BB0FB3
:101C400011F460FF1BC06F5F7F4F8F4F9F4F16C017
:101C5000882311F096E911C0772321F09EE8872FA1
:101C6000762F05C0662371F096E8862F70E060E05D
:101C70002AF09A95660F771F881FDAF7880F9695D6
:101C8000879597F90895990F0008550FAA0BE0E87A
:101C9000FEEF16161706E807F907C0F0121613062E
:101CA000E407F50798F0621B730B840B950B39F46E
:101CB0000A2661F0232B242B252B21F408950A26D4
:101CC00009F4A140A6958FEF811D811D089597F914
:101CD0009F6780E870E060E008959FEF80EC0895D2
:101CE00000240A94161617061806090608950024FB
:101CF0000A9412161306140605060895092E039475
:101D0000000C11F4882352F0BB0F40F4BF2B11F4E8
:101D100060FF04C06F5F7F4F8F4F9F4F089557FD47
:101D20009058440F551F59F05F3F71F04795880F49
:101D300097FB991F61F09F3F79F0879508951216E0
:101D400013061406551FF2CF4695F1DF08C016168C
:101D500017061806991FF1CF86957105610508943D
:101D60000895E894BB2766277727CB0197F9089554
:101D70008ADF08F48FEF08950BD0C0CFB1DF28F0D1
:101D8000B6DF18F0952309F0A2CFA7CF1124EACF30
:101D9000C6DFA0F3959FD1F3950F50E0551F629FCA
:101DA000F001729FBB27F00DB11D639FAA27F00DB4
:101DB000B11DAA1F649F6627B00DA11D661F829FDB
:101DC0002227B00DA11D621F739FB00DA11D621FC0
:101DD000839FA00D611D221F749F3327A00D611DDD
:101DE000231F849F600D211D822F762F6A2F1124BF
:101DF0009F5750408AF0E1F088234AF0EE0FFF1F12
:101E0000BB1F661F771F881F91505040A9F79E3F48
:101E1000510570F05CCFA6CF5F3FECF3983EDCF34A
:101E2000869577956795B795F795E7959F5FC1F785
:101E3000FE2B880F911D9695879597F9089523DFBE
:101E4000880B990B0895991B79E004C0991F961788
:101E500008F0961B881F7A95C9F780950895A1E22E
:101E60001A2EAA1BBB1BFD010DC0AA1FBB1FEE1F14
:101E7000FF1FA217B307E407F50720F0A21BB30B5F
:101E8000E40BF50B661F771F881F991F1A9469F7DB
:101E900060957095809590959B01AC01BD01CF0137
:101EA0000895EE0FFF1F0590F491E02D0994F8942A
:021EB000FFCF62
:101EB200010000000100004000140054004255538C
:101EC2002048756E6720004E6F74205072657365EE
:101ED2006E74200041434B2074696D65206F7574E8
:101EE200200053796E632054696D656F757420000C
:101EF200446174612054696D656F75742000506F80
:101F02006C6C656420746F6F20717569636B20005F
:101F120048756D69646974793A2020202020202058
:101F22002000250054616B696E67204D6F697374E0
:101F320075726520004D6F6973747572653A202061
:101F42002020202020005374617274696E67207211
:101F52006F7665720000000000B305FF0A00000002
:101F6200005F09FF0A05093209170954096E616EFB
:0C1F720000696E66006F7666002E0000AD
:00000001FF
