:100000000C946C000C9494000C9494000C94940048
:100010000C9494000C9494000C9494000C94940010
:100020000C9494000C9494000C9494000C943C0454
:100030000C9494000C9494000C9494000C949400F0
:100040000C944F090C9494000C946F0C0C94B20C0B
:100050000C9494000C9494000C9494000C949400D0
:100060000C9494000C949400660277027A027D024C
:10007000800283028C028602000000070002010059
:100080000003040600000000000000000102040854
:1000900010204080010204081020010204081020F2
:1000A000040404040404040402020202020203031E
:1000B00003030303000000002300260029000000C2
:1000C0000000250028002B0000000000240027006D
:1000D0002A005203C503700D11241FBECFEFD8E0D4
:1000E000DEBFCDBF12E0A0E0B1E0E8E7FAE202C077
:1000F00005900D92A431B107D9F713E0A4E1B2E065
:1001000001C01D92AA31B107E1F710E0C8EDD0E0BF
:1001100004C02297FE010E943B12C23DD107C9F7DD
:100120000E94C60D0C943A150C9400008F929F9279
:10013000AF92BF92CF92DF92EF92FF921F93CF9335
:10014000DF936B017C01142F8091160290911702AE
:100150008B3F914024F010921702109216020E94D9
:100160009909CB018C509E4F68EE73E00E940312F8
:10017000C62F60911602709117029B012F5F3F4FAF
:1001800030931702209316024C2F82E692E00E94D1
:100190009B0560911602709117029B012F5F3F4FE4
:1001A00030931702209316024C2F82E692E00E94B1
:1001B0009B05C701B6010E94A9104B015C0160912B
:1001C000160270911702CB0101969093170280934B
:1001D0001602482D82E692E00E949B05C09116020D
:1001E000D0911702CE0101969093170280931602C8
:1001F000B401882777FD8095982F0E94DC109B0121
:10020000AC01C701B6010E94D80F20E030E048ECF5
:1002100052E40E9490110E94A910462FBE0182E66E
:1002200092E00E949B056091160270911702CB012B
:1002300001969093170280931602412F82E692E076
:100240000E949B056091160270911702CB010196E6
:100250009093170280931602412F82E692E0DF917D
:10026000CF911F91FF90EF90DF90CF90BF90AF9014
:100270009F908F900C949B051F93CF93DF93809159
:100280001402909115028B3F914024F010921502B8
:10029000109214028CE090E00E94B00AEC01609190
:1002A000140270911502CB01019690931502809370
:1002B000140282E692E00E949805182F60911402C1
:1002C000709115029B012F5F3F4F309315022093D1
:1002D000140282E692E00E949805612F70E0762F6A
:1002E0006627682B882777FD8095982F0E94DC1061
:1002F000688379838A839B836091140270911502CD
:10030000CB010196909315028093140282E692E04D
:100310000E949805182F60911402709115029B019C
:100320002F5F3F4F309315022093140282E692E034
:100330000E94980564E60E94F711682F70E0610F33
:10034000711D882777FD8095982F0E94DC106C83A3
:100350007D838E839F836091140270911502CB017F
:100360000196909315028093140282E692E00E9417
:100370009805182F60911402709115029B012F5F50
:100380003F4F309315022093140282E692E00E94C0
:100390009805612F70E0762F6627682B882777FDF8
:1003A0008095982F0E94DC10688779878A879B87C1
:1003B000CE01DF91CF911F910895CF92DF92EF92FE
:1003C000FF920F931F93CF93DF93CDB7DEB7C85C37
:1003D000D1090FB6F894DEBF0FBECDBF3CE1E32ECE
:1003E000F12C43E1C42E41E0D42E8E010F5F1F4F4C
:1003F0000E943C01FC0183818F9382818F938181D4
:100400008F9380818F9387818F9386818F9385814E
:100410008F9384818F9383858F9382858F9381853A
:100420008F9380858F93DF92CF921F930F930E94BB
:100430005312B8018CE692E00E942E0E81E0E81A79
:10044000F1080FB6F894DEBF0FBECDBFE114F10482
:1004500079F6C853DF4F0FB6F894DEBF0FBECDBF9D
:10046000DF91CF911F910F91FF90EF90DF90CF9090
:1004700008958CE692E00E946E0D8823D1F040E052
:1004800060E087E292E00E944F0666E371E087E257
:1004900092E00E94110E41E060E087E292E00E944B
:1004A0004F0667E471E087E292E00E94110E0C941F
:1004B000DD0108958CE192E00E9489078830910562
:1004C00058F5FC01EC5CFF4F0C943912609123024B
:1004D00070912402882777FD8095982F0E94DC1068
:1004E00020E030E040E251E40E944110089567E5C9
:1004F00071E00EC061E671E00BC06EE671E008C00D
:100500006CE771E005C06AE871E002C068E971E07B
:100510008CE692E00E942E0E60E070E0CB01089520
:1005200081E00E94340A97FF02C080E090E00895C5
:10053000CF92DF92EF92FF926B017C0140E060E08E
:1005400087E292E00E944F066AEA71E087E292E059
:100550000E94110E40E06AE087E292E00E944F069E
:1005600022E030E0B701A60187E292E00E94D60FB8
:100570006CEB71E087E292E0FF90EF90DF90CF901C
:100580000C94110ECF93DF93EC0141E060E087E221
:1005900092E00E944F066EEB71E087E292E00E94CB
:1005A000110E68EE73E080E090E00E94C80941E01F
:1005B00060E087E292E00E944F066FEC71E087E214
:1005C00092E00E94110E41E06AE087E292E00E9410
:1005D0004F064AE050E0BE0187E292E0DF91CF9102
:1005E0000C94E30ECF92DF92EF92FF92CF93DF93C2
:1005F0000E949909C0901802D0901902E0901A0246
:10060000F0901B026C197D098E099F09613D7740AE
:100610008105910510F10E945A026B017C010E9434
:100620009002EC0120E030E0A901C701B6010E9470
:100630003D10882391F0C701B6010E949802CE01B7
:100640000E94C202AE01C701B601DF91CF91FF90B7
:10065000EF90DF90CF900C949600DF91CF91FF90B8
:10066000EF90DF90CF900895CF93DF9300D01F924B
:10067000CDB7DEB760E085E00E94E008CE010196CC
:100680000E94F80460E081E00E94E00863E170E00D
:10069000CE0101960E9492050F900F900F90DF916E
:1006A000CF91089562E18CE192E00E9464070E947C
:1006B0009909609318027093190280931A0290931B
:1006C0001B020895CF93DF93EC0141E068E087E2DD
:1006D00092E00E944F064AE050E0BE0187E292E0BD
:1006E000DF91CF910C94E30ECF93DF9360EE71E036
:1006F00087E292E00E94110E87E292E00E947C065F
:10070000C9E0D0E0CE010E94620368EE73E080E0B1
:1007100090E00E94C809CE0101970E9462030E94E6
:100720005A020E94900268EE73E080E090E00E941E
:10073000C8092297CF3F8FEFD80721F787E292E0D1
:10074000DF91CF910C94480640E855E260E070E0FC
:100750008CE692E00E94ED0C20E042E060E187E24E
:1007600092E00E9484060E942C040E9434030E949E
:1007700074030E9439020C9400040E94F20260ED9E
:1007800077E080E090E00C94C809AF92CF92EF92AE
:100790000F9381E1A82E90E1C92E2AE0E22E07E016
:1007A00026E044E062E087E292E00E9438070F9181
:1007B000EF90CF90AF90089561E08DE00E9419090D
:1007C00061E08CE00C94190960E08DE00E94190949
:1007D00061E08CE00C9419096FEF70E08BE00E94EF
:1007E000510A6FEF70E083E00C94510A60E070E012
:1007F0008BE00E94510A60E070E083E00C94510AA3
:100800000E94EC030E94DC0360E177E280E090E06C
:100810000E94C8090E94E40368EE73E080E090E063
:100820000E94C8090E94DC0368E873E180E090E060
:100830000E94C8090E94E40368EE73E080E090E043
:100840000E94C8090E94DC0360E177E280E090E04A
:100850000E94C8090C94F60361E08BE00E94E00856
:1008600061E08DE00E94E00861E083E00E94E00822
:1008700061E08CE00C94E0081F920F920FB60F928B
:1008800011242F933F934F935F936F937F938F9395
:100890009F93AF93BF93EF93FF9380913D0287FFA8
:1008A00005C010928500109284001AC020913D026C
:1008B000332727FD309580913C0290E028173907B7
:1008C0007CF480913D02992787FD9095FC01EE0F05
:1008D000FF1FE80FF91FE25CFD4F808186FD15C008
:1008E00080913D028F5F80933D0220913D0233272E
:1008F00027FD309580913C0290E028173907BCF421
:1009000080913D028C305CF112C080913D029927AC
:1009100087FD9095FC01EE0FFF1FE80FF91FE25CC9
:10092000FD4F808160E08F730E941909D9CF8091BB
:10093000840090918500049680349C4918F480E4EA
:100940009CE905C080918400909185000496909365
:100950008900809388008FEF80933D0238C080919A
:1009600084009091850020913D02332727FD30952A
:10097000F901EE0FFF1FE20FF31FE25CFD4F218133
:100980003281820F931F9093890080938800809119
:100990003D02992787FD9095FC01EE0FFF1FE80FA0
:1009A000F91FE25CFD4F808186FF11C080913D02FE
:1009B000992787FD9095FC01EE0FFF1FE80FF91FA7
:1009C000E25CFD4F808161E08F730E941909FF9105
:1009D000EF91BF91AF919F918F917F916F915F91B7
:1009E0004F913F912F910F900FBE0F901F90189530
:1009F00020913C022C30A0F431E0320F30933C02C5
:100A0000FC012083822F90E0FC01EE0FFF1FE80F16
:100A1000F91FE25CFD4F88EB9BE092838183089590
:100A20002FEFFC0120830895DF92EF92FF920F9346
:100A30001F93CF93DF93EC01D62E7A018901888131
:100A40008C3008F066C061E08D2D0E94E00888813E
:100A5000A82FB0E0FD01EE0FFF1FEA0FFB1FE25CC5
:100A6000FD4F2D2D2F739081907C922B908360E20F
:100A700072E06E197F0977FF02C06D5F7F4F759539
:100A8000679575956795698340E659E0401B510B62
:100A900057FF02C04D5F5F4F559547955595479558
:100AA0004A836CE00E94F7119CE0899FB0011124F9
:100AB00020E030E0A901460F571FFA01EE0FFF1F9B
:100AC000E40FF51FE25CFD4F908196FD16C02F5F8D
:100AD0003F4F2C30310571F781110FC0109280000B
:100AE00082E0809381001092850010928400B19A78
:100AF00080916F00826080936F00888190E0FC019C
:100B0000EE0FFF1FE80FF91FE25CFD4F808180644C
:100B100080838881DF91CF911F910F91FF90EF909B
:100B2000DF90089520E639E040E252E00C9414058D
:100B3000CB010C944714CB01642F0C944F14CF932A
:100B4000DF93EC0160E08E810E94190981E090E062
:100B50000E94EE0961E08E810E94190981E090E017
:100B60000E94EE0960E08E810E94190984E690E0FF
:100B7000DF91CF910C94EE09CF92DF92EF92FF922A
:100B80000F931F93CF93DF937C01C0E0D0E0C62E7C
:100B9000D12C87010C0F1D1F61E0F80187810E9495
:100BA000E008B6010C2E02C0759567950A94E2F72D
:100BB0006170F80187810E9419092196C430D1051E
:100BC00041F7C701DF91CF911F910F91FF90EF90F7
:100BD000DF90CF900C949F05CF92DF92EF92FF921F
:100BE0000F931F93CF93DF937C01C0E0D0E0C62E1C
:100BF000D12C87010C0F1D1F61E0F80187810E9435
:100C0000E008B6010C2E02C0759567950A94E2F7CC
:100C10006170F80187810E9419092196C830D105B9
:100C200041F7C701DF91CF911F910F91FF90EF9096
:100C3000DF90CF900C949F051F93CF93DF93EC012F
:100C4000162F642F8C810E9419098D818F3F19F016
:100C500060E00E9419098F85612F84FF06C0CE01D4
:100C6000DF91CF911F910C94EC0570E084E07595B5
:100C700067958A95E1F7CE010E94BC05612FCE01F0
:100C8000DF91CF911F910C94BC0540E00C941C06A1
:100C900061E00E94450680ED97E00C94EE09CF9349
:100CA000DF93CDB7DEB728970FB6F894DEBF0FBE3F
:100CB000CDBF28E0EBE0F1E0DE01119601900D924E
:100CC0002A95E1F7FC012389421710F04FEF420FFC
:100CD000FE013196E40FF11DE40FF11D2081260F76
:100CE0002068622F28960FB6F894DEBF0FBECDBFE6
:100CF000DF91CF910C944506FC016089262F24607A
:100D0000208B6C600C944506CF93DF93EC0142304E
:100D100018F08F8588608F874B8B1C8A222329F0DF
:100D2000413019F48F8584608F8780E593EC0E94B1
:100D3000EE0960E08C810E94190960E08E810E94BA
:100D400019098D818F3F19F060E00E9419096F85A4
:100D500064FD1DC063E0CE010E94BC0584E991E101
:100D60000E94EE0963E0CE010E94BC0584E991E196
:100D70000E94EE0963E0CE010E94BC0586E990E086
:100D80000E94EE0962E0CE010E94BC0516C06062BE
:100D9000CE010E94450684E991E10E94EE096F852B
:100DA0006062CE010E94450686E990E00E94EE094D
:100DB0006F856062CE010E9445066F856062CE013C
:100DC0000E94450684E0888BCE010E947C06CE01FD
:100DD0000E94480682E0898B66E0CE01DF91CF91C8
:100DE0000C9445066F927F928F92AF92CF92EF92C2
:100DF0000F931F93CF93DF93CDB7DEB73C01162F30
:100E0000842F5D854E853F859889F30184832583F2
:100E10000683E782C086A18682865387448735870A
:100E2000968761E00E94E008F30185818F3F19F009
:100E300061E00E94E00861E0F30186810E94E00821
:100E4000112319F0F301178603C080E1F3018787AE
:100E500020E041E060E1C301DF91CF911F910F914C
:100E6000EF90CF90AF908F907F906F900C9484060E
:100E70008F92AF92CF92EF920F93DC0113961C9258
:100E80001E921297E3EFF1E0ED93FC931F921F92F5
:100E90001F921F928A2CAC2CCE2CE02E022F242FD6
:100EA000462F61E00E94F2060F900F900F900F9076
:100EB0000F91EF90CF90AF908F90089541E00E94F6
:100EC0001C0681E090E00895CF93DF93EC0170E081
:100ED000FB01E457FF4FE491E883FB01E056FF4F2D
:100EE000E491F0E0EE0FFF1FEC54FF4F85919491D9
:100EF0009A8389830E9499096B837C838D839E8367
:100F00008DE19CEF98878F839A878987DF91CF91B6
:100F100008957F928F929F92AF92BF92CF92DF926D
:100F2000EF92FF920F931F93CF93DF93CDB7DEB76E
:100F3000A9970FB6F894DEBF0FBECDBF7C01FC01B0
:100F40007080018112810E9499096E01FAE2CF0E30
:100F5000D11CFE0131961192EC15FD05E1F7F70168
:100F600083809480A580B6809B01AC012819390943
:100F70004A095B0949015A0130ED831637E09306AF
:100F8000A104B10408F4DAC0638374838583968373
:100F9000F894F8018181B72CB0948B2181837894E7
:100FA000EEE7AE2E82E090E00E94EE09F80180812B
:100FB000872129F4AA94B1F781E090E0C4C0F894A5
:100FC000F80182818B2182838181872981837894B2
:100FD0008CE494E00E94EE09F894F80181818B2161
:100FE000818378947AE1B72E82E090E00E94EE0946
:100FF000F8018081872129F4BA94B1F782E090E06A
:10100000A2C063E3B62E82E090E00E94EE09F801F0
:101010008081872129F0BA94B1F783E090E093C0F2
:101020009E012F5F3F4F590154E2952E82E090E0E0
:101030000E94EE09F8018081872129F49A94B1F782
:1010400084E090E080C0912C939482E090E00E9434
:10105000EE09F8018081872131F0F3E39F12F4CF8C
:1010600085E090E070C0F50191925F01EC15FD05FF
:10107000D9F6FE0132968FE090E040E050E021E0AA
:1010800030E061916C3048F0B901082E02C0660F63
:10109000771F0A94E2F7462B572B019790F7FE0132
:1010A00072968FE090E020E030E061E070E0A19186
:1010B000AC3048F0DB01082E02C0AA0FBB1F0A9417
:1010C000E2F72A2B3B2B019790F7FE01B29687E0BF
:1010D00090E060E0A1E0B0E071917C3038F08D01EB
:1010E000082E01C0000F0A94EAF7602B0197A0F7C1
:1010F000CA019F77F7019087878337FF08C03F7742
:1011000088279927821B930B9287818703C0F70159
:101110003287218770E0852F9927840F911D432FF7
:10112000552747FD5A95840F951F820F911D9927CA
:101130006817790731F480E090E005C087E090E01F
:1011400002C086E090E0A9960FB6F894DEBF0FBE0D
:10115000CDBFDF91CF911F910F91FF90EF90DF9066
:10116000CF90BF90AF909F908F907F9008958330E5
:1011700081F028F4813099F08230A1F00895863012
:10118000A9F08730B9F08430D1F4809180008F7D50
:1011900003C0809180008F7780938000089584B58C
:1011A0008F7702C084B58F7D84BD08958091B00093
:1011B0008F7703C08091B0008F7D8093B000089539
:1011C000CF93DF9390E0FC01E457FF4F2491FC01A3
:1011D000E056FF4F8491882349F190E0880F991FD2
:1011E000FC01E853FF4FA591B49182549F4FFC013D
:1011F000C591D4919FB7611108C0F8948C91209546
:1012000082238C93888182230AC0623051F4F8943F
:101210008C91322F309583238C938881822B888305
:1012200004C0F8948C91822B8C939FBFDF91CF9157
:1012300008950F931F93CF93DF931F92CDB7DEB71F
:10124000282F30E0F901E858FF4F8491F901E45765
:10125000FF4F1491F901E056FF4F04910023C9F0AC
:10126000882321F069830E94B7086981E02FF0E0AC
:10127000EE0FFF1FE254FF4FA591B4919FB7F89472
:101280008C91611103C01095812301C0812B8C9337
:101290009FBF0F90DF91CF911F910F9108951F92E3
:1012A0000F920FB60F9211242F933F938F939F931A
:1012B000AF93BF938091640290916502A091660202
:1012C000B09167023091630223E0230F2D3720F4A1
:1012D0000196A11DB11D05C026E8230F0296A11D90
:1012E000B11D209363028093640290936502A093E2
:1012F0006602B09367028091680290916902A091A2
:101300006A02B0916B020196A11DB11D8093680223
:1013100090936902A0936A02B0936B02BF91AF9160
:101320009F918F913F912F910F900FBE0F901F9023
:1013300018952FB7F89460916402709165028091BE
:101340006602909167022FBF08953FB7F89480918D
:10135000680290916902A0916A02B0916B0226B571
:10136000A89B05C02F3F19F00196A11DB11D3FBFDD
:101370006627782F892F9A2F620F711D811D911D6D
:1013800042E0660F771F881F991F4A95D1F708958D
:10139000CF92DF92EF92FF92CF93DF936B017C01AC
:1013A0000E94A509EB01C114D104E104F10479F014
:1013B0000E94A5096C1B7D0B683E7340A0F381E081
:1013C000C81AD108E108F108C851DC4FECCFDF9111
:1013D000CF91FF90EF90DF90CF9008950197009705
:1013E00039F0880F991F880F991F02970197F1F71D
:1013F0000895789484B5826084BD84B5816084BD8D
:1014000085B5826085BD85B5816085BDEEE6F0E07D
:10141000808181608083E1E8F0E0108280818260D9
:101420008083808181608083E0E8F0E0808181605A
:101430008083E1EBF0E0808184608083E0EBF0E08A
:10144000808181608083EAE7F0E08081846080832E
:1014500080818260808380818160808380818068D8
:1014600080831092C10008958E3008F08E508770EE
:101470002091040190E4299F90011124822B8093F4
:101480007C0080917A00806480937A0080917A0059
:1014900086FDFCCF809178002091790090E0922B1E
:1014A00008951F93CF93DF93182FEB0161E00E9403
:1014B000E008209711F460E004C0CF3FD10539F473
:1014C00061E0812FDF91CF911F910C941909E12FD9
:1014D000F0E0E858FF4FE491E330F9F048F4E130F0
:1014E000B9F0E230A1F584B5806284BDC8BD34C0D6
:1014F000E630E9F0E73019F1E43049F580918000F9
:10150000806280938000D0938B00C0938A0024C0B7
:1015100084B5806884BDC7BD1FC08091800080688D
:1015200080938000D0938900C093880015C080917B
:10153000B00080688093B000C093B3000DC080916C
:10154000B00080628093B000C093B40005C0C03882
:10155000D1050CF0B5CFAFCFDF91CF911F9108959A
:10156000CF93DF938230910510F482E090E0E09118
:101570001803F091190320E030E0A0E0B0E03097CC
:1015800039F14081518148175907B8F04817590778
:1015900071F482819381109729F013969C938E9316
:1015A00012972CC0909319038093180327C021151C
:1015B000310531F04217530718F0A901DB0101C0D2
:1015C000EF019A01BD01DF010280F381E02DD7CF49
:1015D00021153105F9F0281B390B2430310580F431
:1015E0008A819B816115710521F0FB0193838283C0
:1015F00004C09093190380931803FE01329644C0EF
:10160000FE01E20FF31F8193919322503109398338
:1016100028833AC02091160330911703232B41F4FD
:10162000209107013091080130931703209316038E
:1016300020910501309106012115310541F42DB7A6
:101640003EB74091090150910A01241B350BE091EE
:101650001603F0911703E217F307A0F42E1B3F0BBC
:101660002817390778F0AC014E5F5F4F2417350714
:1016700048F04E0F5F1F509317034093160381935A
:10168000919302C0E0E0F0E0CF01DF91CF910895A7
:10169000CF93DF93009709F487C0FC013297138240
:1016A0001282C0911803D0911903209781F42081F0
:1016B0003181280F391F80911603909117038217EB
:1016C000930779F5F0931703E09316036DC0DE01DD
:1016D00020E030E0AE17BF0750F412964D915C91B8
:1016E00013979D014115510509F1DA01F3CFB38339
:1016F000A28340815181840F951F8A179B0771F443
:101700008D919C911197840F951F029691838083F0
:1017100012968D919C9113979383828321153105A5
:1017200029F4F0931903E09318033EC0D9011396EE
:10173000FC93EE9312974D915D91A40FB51FEA179C
:10174000FB0779F480819181840F951F0296D9015E
:1017500011969C938E938281938113969C938E9382
:101760001297E0E0F0E08A819B81009719F0FE017A
:10177000EC01F9CFCE01029628813981820F931FA7
:1017800020911603309117032817390769F4309711
:1017900029F4109219031092180302C013821282C6
:1017A000D0931703C0931603DF91CF910895FC01E6
:1017B00024853585F901E05CFF4F80819181F90135
:1017C000EE5BFF4F20813181821B930B8F73992732
:1017D0000895FC0184859585FC01E05CFF4F408104
:1017E0005181FC01EE5BFF4F20813181421753078D
:1017F00041F00190F081E02DE80FF91F808190E029
:1018000008958FEF9FEF0895FC0184859585FC0175
:10181000E05CFF4F40815181FC01EE5BFF4F208176
:1018200031814217530779F0A081B181A80FB91F08
:101830008C91208131812F5F3F4F2F73332731836C
:10184000208390E008958FEF9FEF0895FC0181A120
:10185000882329F0A489B5898C9186FFFBCF11A23A
:101860000895CF93DF93FC0126853785D901A05CCD
:10187000BF4F8D919C91119701968F739927E90124
:10188000CE5BDF4F4881598184179507D9F30D90BE
:10189000BC91A02DA20FB31F6C93A685B785A05C49
:1018A000BF4F11969C938E93A689B7892C9181E0A6
:1018B00090E0078C02C0880F991F0A94E2F7282B4A
:1018C0002C9381E081A30488F589E02D80818064D8
:1018D000808381E090E0DF91CF91089508951F9279
:1018E0000F920FB60F9211242F933F934F938F9324
:1018F0009F93EF93FF938091C00082FD1CC04091A5
:10190000C600809112039091130301968F7399275B
:1019100020911403309115038217930771F0E09121
:101920001203F0911303EE52FD4F40839093130383
:101930008093120302C08091C600FF91EF919F91A6
:101940008F914F913F912F910F900FBE0F901F904D
:1019500018958CE692E00E94D70B892B11F00C941D
:101960006E0C08951F920F920FB60F9211242F93B1
:101970003F938F939F93EF93FF932091CE023091EB
:10198000CF028091D0029091D1022817390731F40B
:101990008091C1008F7D8093C10014C0E091D0027E
:1019A000F091D102E257FD4F20818091D0029091B9
:1019B000D10201968F7399279093D1028093D00220
:1019C0002093C600FF91EF919F918F913F912F91AE
:1019D0000F900FBE0F901F901895CF92DF92EF924D
:1019E000FF92CF93DF93EC016A017B01411581EEF9
:1019F000580761057105F9F0EC89FD8981E090E0F7
:101A000008A002C0880F991F0A94E2F7808360E063
:101A100079E08DE390E0A70196010E941712215012
:101A20003109410951095695479537952795211553
:101A300080E1380798F0EC89FD89108260E874E84D
:101A40008EE190E0A70196010E9417122150310902
:101A5000410951095695479537952795E889F989A0
:101A60003083EA89FB89208319A2EE89FF894081AE
:101A700081E090E09C010C8C02C0220F331F0A947D
:101A8000E2F7422B4083EE89FF8940819C010D8C57
:101A900002C0220F331F0A94E2F7422B4083EE89E3
:101AA000FF8940819C010E8C02C0220F331F0A94D3
:101AB000E2F7422B4083EE89FF8920810F8C02C020
:101AC000880F991F0A94E2F7809582238083DF9123
:101AD000CF91FF90EF90DF90CF90089581E008952F
:101AE00010926F0210926E0288EE93E0A0E0B0E0D8
:101AF0008093700290937102A0937202B09373026C
:101B00008BEF91E090936D0280936C0282ED92E0F6
:101B100090937902809378028EE892E090937B0212
:101B200080937A0285EC90E090937D0280937C0212
:101B300084EC90E090937F0280937E0280EC90E0B2
:101B4000909381028093800281EC90E090938302D5
:101B50008093820282EC90E09093850280938402CD
:101B600086EC90E0909387028093860284E08093D5
:101B7000880283E08093890287E080938A0285E06F
:101B800080938B0281E080938C0208950E94F90972
:101B90000E94A403C9EADCE00E94BD032097E1F3A0
:101BA0000E94A90CF9CFCF92DF92EF92FF920F9390
:101BB0001F93CF93DF936C017A01EB01E60EF71EC2
:101BC00000E010E0CE15DF0561F06991D601ED91DE
:101BD000FC910190F081E02DC6010995080F191FB5
:101BE000F1CFC801DF91CF911F910F91FF90EF903E
:101BF000DF90CF9008956115710581F0DB010D90A4
:101C00000020E9F7AD0141505109461B570BDC019B
:101C1000ED91FC910280F381E02D099480E090E049
:101C200008950C94FB0DDC01ED91FC910190F08185
:101C3000E02D09940F931F93CF93DF93EC016DE098
:101C40000E94130E8C016AE0CE010E94130E800FD9
:101C5000911FDF91CF911F910F9108950F931F93C3
:101C6000CF93DF93EC010E94FB0D8C01CE010E940B
:101C70001A0E800F911FDF91CF911F910F91089540
:101C80008F929F92AF92BF92CF92DF92EF92FF928C
:101C90000F931F93CF93DF93CDB7DEB7A1970FB606
:101CA000F894DEBF0FBECDBF7C01C42EE52FCB0163
:101CB000D22E19A221E02D1510F02AE0D22E8E018D
:101CC0000F5D1F4F8D2C912CA12CB12C6C2D7E2FD4
:101CD000A50194010E9417128C2DD29E8019112407
:101CE000015011098A3014F4805D01C0895CF8014B
:101CF0008083211531054105510521F0C22EE32FC6
:101D0000CA01E4CFB801C7010E94FB0DA1960FB62E
:101D1000F894DEBF0FBECDBFDF91CF911F910F9121
:101D2000FF90EF90DF90CF90BF90AF909F908F90FB
:101D30000895CF92DF92EF92FF920F931F93CF936C
:101D4000DF93EC016A017B012115310579F4E8810B
:101D5000F9810190F081E02D642FDF91CF911F91E7
:101D60000F91FF90EF90DF90CF9009942A303105CA
:101D7000E9F477FF1AC06DE20E94130E8C0144272C
:101D80005527BA014C195D096E097F092AE0CE0179
:101D90000E94400E800F911FDF91CF911F910F91F4
:101DA000FF90EF90DF90CF9008952AE0B701A60151
:101DB000CE01DF91CF911F910F91FF90EF90DF90B7
:101DC000CF900C94400E9A01AB01662757FD6095A9
:101DD000762F0C94990E4F925F926F927F928F9212
:101DE0009F92AF92BF92CF92DF92EF92FF920F93AA
:101DF0001F93CF93DF93EC016A017B01B22E9A010E
:101E0000AB01C701B6010E94F311882319F067E006
:101E100072E027C026013701E89477F82FEF3FEFF3
:101E20004FE75FE7C301B2010E94F31181110DC0BA
:101E30002FEF3FEF4FE75FE7C301B2010E943D1074
:101E400018161CF46BE072E00CC02FEF3FEF4FE769
:101E50005FE4C701B6010E948C111816ACF46FE064
:101E600072E0CE01DF91CF911F910F91FF90EF9023
:101E7000DF90CF90BF90AF909F908F907F906F90AA
:101E80005F904F900C94FB0D2FEF3FEF4FE75FEC0F
:101E9000C701B6010E943D1087FDE1CF20E030E090
:101EA000A901C701B6010E943D1087FF0AC06DE27B
:101EB000CE010E94130E8C01F7FAF094F7F8F0941B
:101EC00002C000E010E0A12C60E070E080E09FE341
:101ED000AB1441F020E030E040E251E40E944110B8
:101EE000A394F6CF9B01AC01C701B6010E94D90FA4
:101EF0006B017C010E94AE102B013C010E94DA10A4
:101F00009B01AC01C701B6010E94D80F6B017C0197
:101F10002AE0B301A201CE010E94400E080F191F52
:101F2000BB2039F065E571E0CE010E94FB0D080F82
:101F3000191F7B2C772041F120E030E040E251E492
:101F4000C701B6010E9490116B017C010E94A9108B
:101F50004B01AA2497FCA094BA2C2AE030E0B501EA
:101F6000A401CE010E94990E080F191FC501B401EA
:101F70000E94DC109B01AC01C701B6010E94D80F82
:101F80006B017C017A94D6CFC801DF91CF911F916C
:101F90000F91FF90EF90DF90CF90BF90AF909F9008
:101FA0008F907F906F905F904F9008950C94EB0E00
:101FB0005058BB27AA270ED075C166D130F06BD11F
:101FC00020F031F49F3F11F41EF45BC10EF4E09554
:101FD000E7FB51C1E92F77D180F3BA176207730786
:101FE0008407950718F071F49EF58FC10EF4E09503
:101FF0000B2EBA2FA02D0B01B90190010C01CA01C3
:10200000A0011124FF27591B99F0593F50F4503E6D
:1020100068F11A16F040A22F232F342F4427585F5F
:10202000F3CF469537952795A795F0405395C9F777
:102030007EF41F16BA0B620B730B840BBAF091502F
:10204000A1F0FF0FBB1F661F771F881FC2F70EC0CE
:10205000BA0F621F731F841F48F4879577956795A1
:10206000B795F7959E3F08F0B3CF9395880F08F08A
:102070009927EE0F979587950895D9D008F481E0B8
:1020800008950CD00FC107D140F0FED030F021F4FC
:102090005F3F19F0F0C0511139C1F3C014D198F36A
:1020A0009923C9F35523B1F3951B550BBB27AA27D9
:1020B00062177307840738F09F5F5F4F220F331F4B
:1020C000441FAA1FA9F333D00E2E3AF0E0E830D017
:1020D00091505040E695001CCAF729D0FE2F27D01A
:1020E000660F771F881FBB1F261737074807AB07E8
:1020F000B0E809F0BB0B802DBF01FF2793585F4F5D
:102100002AF09E3F510568F0B6C000C15F3FECF376
:10211000983EDCF3869577956795B795F7959F5F21
:10212000C9F7880F911D9695879597F90895E1E075
:10213000660F771F881FBB1F621773078407BA07D4
:1021400020F0621B730B840BBA0BEE1F88F7E0952F
:10215000089504D06894B111D9C00895BCD088F016
:102160009F5790F0B92F9927B751A0F0D1F0660F83
:10217000771F881F991F1AF0BA95C9F712C0B1309E
:1021800081F0C3D0B1E00895C0C0672F782F8827B1
:10219000B85F39F0B93FCCF3869577956795B395DD
:1021A000D9F73EF490958095709561957F4F8F4F4C
:1021B0009F4F0895E89409C097FB3EF49095809551
:1021C000709561957F4F8F4F9F4F9923A9F0F92FFD
:1021D00096E9BB279395F695879577956795B7957B
:1021E000F111F8CFFAF4BB0F11F460FF1BC06F5F61
:1021F0007F4F8F4F9F4F16C0882311F096E911C073
:10220000772321F09EE8872F762F05C0662371F093
:1022100096E8862F70E060E02AF09A95660F771FA7
:10222000881FDAF7880F9695879597F90895990F83
:102230000008550FAA0BE0E8FEEF16161706E80790
:10224000F907C0F012161306E407F50798F0621BB1
:10225000730B840B950B39F40A2661F0232B242B86
:10226000252B21F408950A2609F4A140A6958FEFA5
:10227000811D811D089597F99F6780E870E060E0F7
:1022800008959FEF80EC089500240A94161617060F
:1022900018060906089500240A9412161306140657
:1022A00005060895092E0394000C11F4882352F0BA
:1022B000BB0F40F4BF2B11F460FF04C06F5F7F4F72
:1022C0008F4F9F4F089557FD9058440F551F59F059
:1022D0005F3F71F04795880F97FB991F61F09F3F13
:1022E00079F087950895121613061406551FF2CF3C
:1022F0004695F1DF08C0161617061806991FF1CF8C
:1023000086957105610508940895E894BB276627B2
:102310007727CB0197F908958ADF08F48FEF0895A6
:102320000BD0C0CFB1DF28F0B6DF18F0952309F04D
:10233000A2CFA7CF1124EACFC6DFA0F3959FD1F398
:10234000950F50E0551F629FF001729FBB27F00D63
:10235000B11D639FAA27F00DB11DAA1F649F6627B8
:10236000B00DA11D661F829F2227B00DA11D621F07
:10237000739FB00DA11D621F839FA00D611D221FC1
:10238000749F3327A00D611D231F849F600D211DA5
:10239000822F762F6A2F11249F5750408AF0E1F048
:1023A00088234AF0EE0FFF1FBB1F661F771F881F91
:1023B00091505040A9F79E3F510570F05CCFA6CFD9
:1023C0005F3FECF3983EDCF3869577956795B7957C
:1023D000F795E7959F5FC1F7FE2B880F911D9695A6
:1023E000879597F9089523DF880B990B0895991B1A
:1023F00079E004C0991F961708F0961B881F7A95FC
:10240000C9F78095089597FB072E16F4009407D01E
:1024100077FD09D00E943F1207FC05D03EF490954D
:1024200081959F4F0895709561957F4F0895A1E222
:102430001A2EAA1BBB1BFD010DC0AA1FBB1FEE1F3E
:10244000FF1FA217B307E407F50720F0A21BB30B89
:10245000E40BF50B661F771F881F991F1A9469F705
:1024600060957095809590959B01AC01BD01CF0161
:102470000895EE0FFF1F0590F491E02D0994AA1B1B
:10248000BB1B51E107C0AA1FBB1FA617B70710F05F
:10249000A61BB70B881F991F5A95A9F78095909591
:1024A000BC01CD010895AEE0B0E0E9E5F2E10C94A5
:1024B00011150D891E8986E08C831A8309838FEF9D
:1024C0009FE79E838D83AE01475E5F4F6F89788D56
:1024D000CE0101960E947512EF81F885E00FF11F81
:1024E00010822E96E4E00C942D15ACE0B0E0EBE702
:1024F000F2E10C9403157C016B018A01FC01178247
:102500001682838181FFBDC1CE0101964C01F70186
:102510009381F60193FD859193FF81916F0188234B
:1025200009F4ABC1853239F493FD859193FF819114
:102530006F01853229F4B70190E00E947314E7CF50
:10254000512C312C20E02032A0F48B3269F030F491
:10255000803259F0833269F420612CC08D3239F019
:10256000803339F4216026C02260246023C02860B3
:1025700021C027FD27C030ED380F3A3078F426FF10
:1025800006C0FAE05F9E300D1124532E13C08AE07E
:10259000389E300D1124332E20620CC08E3221F46F
:1025A00026FD6BC1206406C08C3611F4206802C081
:1025B000883641F4F60193FD859193FF81916F0177
:1025C0008111C1CF982F9F7D9554933028F40C5FD3
:1025D0001F4FFFE3F9830DC0833631F0833771F06D
:1025E000833509F05BC022C0F801808189830E5FCA
:1025F0001F4F44244394512C540115C03801F2E07C
:102600006F0E711CF801A080B18026FF03C0652DFC
:1026100070E002C06FEF7FEFC5012C870E94681445
:102620002C0183012C852F77222E17C03801F2E070
:102630006F0E711CF801A080B18026FF03C0652DCC
:1026400070E002C06FEF7FEFC5012C870E945D1420
:102650002C012C852068222E830123FC1BC0832D96
:1026600090E048165906B0F4B70180E290E00E946D
:1026700073143A94F4CFF50127FC859127FE8191DC
:102680005F01B70190E00E94731431103A94F1E0B9
:102690004F1A51084114510471F7E5C0843611F006
:1026A000893639F5F80127FF07C060817181828181
:1026B00093810C5F1F4F08C060817181882777FD6F
:1026C0008095982F0E5F1F4F2F76B22E97FF09C06F
:1026D00090958095709561957F4F8F4F9F4F2068A3
:1026E000B22E2AE030E0A4010E94A514A82EA8185A
:1026F00044C0853729F42F7EB22E2AE030E025C071
:10270000F22FF97FBF2E8F36C1F018F4883579F09B
:10271000B4C0803719F0883721F0AFC02F2F206167
:10272000B22EB4FE0DC08B2D8460B82E09C024FFDC
:102730000AC09F2F9660B92E06C028E030E005C081
:1027400020E130E002C020E132E0F801B7FE07C02E
:1027500060817181828193810C5F1F4F06C060810F
:10276000718180E090E00E5F1F4FA4010E94A514CC
:10277000A82EA818FB2DFF77BF2EB6FE0BC02B2D61
:102780002E7FA51450F4B4FE0AC0B2FC08C02B2D55
:102790002E7E05C07A2C2B2D03C07A2C01C0752CFF
:1027A00024FF0DC0FE01EA0DF11D8081803311F47C
:1027B000297E09C022FF06C07394739404C0822F3F
:1027C000867809F0739423FD13C020FF06C05A2CAD
:1027D000731418F4530C5718732C731468F4B7015E
:1027E00080E290E02C870E94731473942C85F5CFBF
:1027F000731410F4371801C0312C24FF12C0B70134
:1028000080E390E02C870E9473142C8522FF17C070
:1028100021FF03C088E590E002C088E790E0B7019F
:102820000CC0822F867859F021FD02C080E201C0E1
:102830008BE227FD8DE2B70190E00E947314A5148E
:1028400038F4B70180E390E00E9473145A94F7CFF4
:10285000AA94F401EA0DF11D8081B70190E00E9475
:102860007314A110F5CF332009F451CEB70180E2E3
:1028700090E00E9473143A94F6CFF7018681978115
:1028800002C08FEF9FEF2C96E2E10C941F15F9998F
:10289000FECF92BD81BDF89A992780B50895262F65
:1028A000F999FECF1FBA92BD81BD20BD0FB6F89435
:1028B000FA9AF99A0FBE01960895FC0105906150AD
:1028C00070400110D8F7809590958E0F9F1F089546
:1028D000FC016150704001900110D8F780959095EF
:1028E0008E0F9F1F08950F931F93CF93DF93182F81
:1028F000092FEB018B8181FD03C08FEF9FEF20C07B
:1029000082FF10C04E815F812C813D8142175307A9
:102910007CF4E881F9819F012F5F3F4F3983288341
:10292000108306C0E885F985812F0995892B29F741
:102930002E813F812F5F3F4F3F832E83812F902F2A
:10294000DF91CF911F910F910895FA01AA272830A6
:1029500051F1203181F1E8946F936E7F6E5F7F4F6C
:102960008F4F9F4FAF4FB1E03ED0B4E03CD0670FE8
:10297000781F891F9A1FA11D680F791F8A1F911D3B
:10298000A11D6A0F711D811D911DA11D20D009F48B
:1029900068943F912AE0269F11243019305D3193CD
:1029A000DEF6CF010895462F4770405D4193B3E0B6
:1029B0000FD0C9F7F6CF462F4F70405D4A3318F05D
:1029C000495D31FD4052419302D0A9F7EACFB4E00E
:1029D000A6959795879577956795BA95C9F70097C6
:1029E0006105710508959B01AC010A2E0694579567
:1029F000479537952795BA95C9F7620F731F841FBE
:102A0000951FA01D08952F923F924F925F926F9253
:102A10007F928F929F92AF92BF92CF92DF92EF926E
:102A2000FF920F931F93CF93DF93CDB7DEB7CA1BEF
:102A3000DB0B0FB6F894DEBF0FBECDBF09942A881A
:102A4000398848885F846E847D848C849B84AA84C2
:102A5000B984C884DF80EE80FD800C811B81AA814F
:102A6000B981CE0FD11D0FB6F894DEBF0FBECDBF1A
:082A7000ED010895F894FFCF79
:102A7800010000000100001A03800000004000145B
:102A880000540054696D653A2025662048756D69C3
:102A9800646974793A202566204D6F69737475727C
:102AA800653A20256600446574656374656420533F
:102AB800657269616C3A0057726974696E6720645F
:102AC8006174612E2E2E004255532048756E672082
:102AD800004E6F742050726573656E742000414318
:102AE8004B2074696D65206F7574200053796E638F
:102AF8002054696D656F75742000446174612054B9
:102B0800696D656F75742000506F6C6C6564207416
:102B18006F6F20717569636B200048756D69646912
:102B280074793A202020202020202000250054619C
:102B38006B696E67204D6F69737475726520004DFF
:102B48006F6973747572653A202020202020200058
:102B58005374617274696E6720726F7665720000D3
:102B68000000005E07D30D00000000310CD30DD724
:102B78000B040CE90B260C6E616E00696E66006F23
:042B8800766600006D
:00000001FF
